{
  "abi": [
    {
      "inputs": [
        {
          "internalType": "uint256",
          "name": "_startingPrice",
          "type": "uint256"
        },
        {
          "internalType": "uint256",
          "name": "_reservePrice",
          "type": "uint256"
        },
        {
          "internalType": "uint256",
          "name": "_durationSeconds",
          "type": "uint256"
        },
        {
          "internalType": "address",
          "name": "_nft",
          "type": "address"
        },
        {
          "internalType": "uint256",
          "name": "_nftId",
          "type": "uint256"
        }
      ],
      "stateMutability": "nonpayable",
      "type": "constructor"
    },
    {
      "anonymous": false,
      "inputs": [
        {
          "indexed": true,
          "internalType": "address",
          "name": "previousOwner",
          "type": "address"
        },
        {
          "indexed": true,
          "internalType": "address",
          "name": "newOwner",
          "type": "address"
        }
      ],
      "name": "OwnershipTransferred",
      "type": "event"
    },
    {
      "inputs": [],
      "name": "auctionAge",
      "outputs": [
        {
          "internalType": "uint256",
          "name": "",
          "type": "uint256"
        }
      ],
      "stateMutability": "view",
      "type": "function"
    },
    {
      "inputs": [],
      "name": "auctionGreenlit",
      "outputs": [
        {
          "internalType": "bool",
          "name": "",
          "type": "bool"
        }
      ],
      "stateMutability": "view",
      "type": "function"
    },
    {
      "inputs": [],
      "name": "buy",
      "outputs": [],
      "stateMutability": "payable",
      "type": "function"
    },
    {
      "inputs": [],
      "name": "destroyAuction",
      "outputs": [],
      "stateMutability": "nonpayable",
      "type": "function"
    },
    {
      "inputs": [],
      "name": "duration",
      "outputs": [
        {
          "internalType": "uint256",
          "name": "",
          "type": "uint256"
        }
      ],
      "stateMutability": "view",
      "type": "function"
    },
    {
      "inputs": [],
      "name": "getPrice",
      "outputs": [
        {
          "internalType": "uint256",
          "name": "",
          "type": "uint256"
        }
      ],
      "stateMutability": "view",
      "type": "function"
    },
    {
      "inputs": [],
      "name": "nft",
      "outputs": [
        {
          "internalType": "contract IERC721",
          "name": "",
          "type": "address"
        }
      ],
      "stateMutability": "view",
      "type": "function"
    },
    {
      "inputs": [],
      "name": "nftId",
      "outputs": [
        {
          "internalType": "uint256",
          "name": "",
          "type": "uint256"
        }
      ],
      "stateMutability": "view",
      "type": "function"
    },
    {
      "inputs": [],
      "name": "owner",
      "outputs": [
        {
          "internalType": "address",
          "name": "",
          "type": "address"
        }
      ],
      "stateMutability": "view",
      "type": "function"
    },
    {
      "inputs": [],
      "name": "renounceOwnership",
      "outputs": [],
      "stateMutability": "nonpayable",
      "type": "function"
    },
    {
      "inputs": [],
      "name": "reservePrice",
      "outputs": [
        {
          "internalType": "uint256",
          "name": "",
          "type": "uint256"
        }
      ],
      "stateMutability": "view",
      "type": "function"
    },
    {
      "inputs": [],
      "name": "seller",
      "outputs": [
        {
          "internalType": "address payable",
          "name": "",
          "type": "address"
        }
      ],
      "stateMutability": "view",
      "type": "function"
    },
    {
      "inputs": [],
      "name": "startAt",
      "outputs": [
        {
          "internalType": "uint256",
          "name": "",
          "type": "uint256"
        }
      ],
      "stateMutability": "view",
      "type": "function"
    },
    {
      "inputs": [],
      "name": "startAuction",
      "outputs": [],
      "stateMutability": "nonpayable",
      "type": "function"
    },
    {
      "inputs": [],
      "name": "startingPrice",
      "outputs": [
        {
          "internalType": "uint256",
          "name": "",
          "type": "uint256"
        }
      ],
      "stateMutability": "view",
      "type": "function"
    },
    {
      "inputs": [
        {
          "internalType": "address",
          "name": "newOwner",
          "type": "address"
        }
      ],
      "name": "transferOwnership",
      "outputs": [],
      "stateMutability": "nonpayable",
      "type": "function"
    }
  ],
  "bytecode": "60806040526008805460ff1916905534801561001a57600080fd5b50604051610c32380380610c32833981016040819052610039916101f6565b610042336101a6565b603c8310156100ab5760405162461bcd60e51b815260206004820152602a60248201527f41756374696f6e206475726174696f6e206d757374206265206174206c656173604482015269742061206d696e75746560b01b60648201526084015b60405180910390fd5b600085116100fb5760405162461bcd60e51b815260206004820152601f60248201527f5374617274696e67207072696365206d75737420626520706f7369746976650060448201526064016100a2565b8484106101615760405162461bcd60e51b815260206004820152602e60248201527f52657365727665207072696365206d757374206265206c657373207468616e2060448201526d7374617274696e6720707269636560901b60648201526084016100a2565b60038054336001600160a01b031991821617909155600695909555600793909355600591909155600180549093166001600160a01b0390911617909155600255610251565b600080546001600160a01b038381166001600160a01b0319831681178455604051919092169283917f8be0079c531659141344cd1fd0a4f28419497f9722a3daafe3b4186f6b6457e09190a35050565b600080600080600060a0868803121561020e57600080fd5b855160208701516040880151606089015192975090955093506001600160a01b038116811461023c57600080fd5b80925050608086015190509295509295909350565b6109d2806102606000396000f3fe6080604052600436106100f35760003560e01c806398d5fdca1161008a578063c77b1b8f11610059578063c77b1b8f1461024b578063d6fbf20214610260578063db2e1eed14610276578063f2fde38b1461028c57600080fd5b806398d5fdca14610202578063a6f2ae3a14610217578063c6bc51821461021f578063c74465651461023557600080fd5b8063715018a6116100c6578063715018a6146101905780638a646433146101a55780638cf80bd9146101ba5780638da5cb5b146101e457600080fd5b806308551a53146100f85780630fb5a6b41461013557806347ccca02146101595780636b64c76914610179575b600080fd5b34801561010457600080fd5b50600354610118906001600160a01b031681565b6040516001600160a01b0390911681526020015b60405180910390f35b34801561014157600080fd5b5061014b60055481565b60405190815260200161012c565b34801561016557600080fd5b50600154610118906001600160a01b031681565b34801561018557600080fd5b5061018e6102ac565b005b34801561019c57600080fd5b5061018e610460565b3480156101b157600080fd5b5061014b610496565b3480156101c657600080fd5b506008546101d49060ff1681565b604051901515815260200161012c565b3480156101f057600080fd5b506000546001600160a01b0316610118565b34801561020e57600080fd5b5061014b6104fb565b61018e6105a3565b34801561022b57600080fd5b5061014b60025481565b34801561024157600080fd5b5061014b60045481565b34801561025757600080fd5b5061018e610714565b34801561026c57600080fd5b5061014b60065481565b34801561028257600080fd5b5061014b60075481565b34801561029857600080fd5b5061018e6102a736600461083e565b61073e565b6000546001600160a01b031633146102df5760405162461bcd60e51b81526004016102d690610862565b60405180910390fd5b60015460025460405163020604bf60e21b81526001600160a01b039092169163081812fc916103149160040190815260200190565b602060405180830381865afa158015610331573d6000803e3d6000fd5b505050506040513d601f19601f820116820180604052508101906103559190610897565b6001600160a01b0316306001600160a01b0316146103eb5760405162461bcd60e51b815260206004820152604760248201527f41756374696f6e2063616e6e6f7420626520737461727465642e204e4654206f60448201527f776e657220686173206e6f7420617070726f766564207468697320636f6e74726064820152661858dd081e595d60ca1b608482015260a4016102d6565b60085460ff161561044d5760405162461bcd60e51b815260206004820152602660248201527f43616e277420737461727420616e20616c7265616479207374617274656420616044820152653ab1ba34b7b760d11b60648201526084016102d6565b426004556008805460ff19166001179055565b6000546001600160a01b0316331461048a5760405162461bcd60e51b81526004016102d690610862565b61049460006107d9565b565b60085460009060ff166104bb5760405162461bcd60e51b81526004016102d6906108b4565b6005546004546104cb9190610901565b42106104e95760405162461bcd60e51b81526004016102d690610919565b6004546104f69042610944565b905090565b60085460009060ff166105205760405162461bcd60e51b81526004016102d6906108b4565b6005546004546105309190610901565b421061054e5760405162461bcd60e51b81526004016102d690610919565b60006005546007546006546105639190610944565b61056d919061095b565b905060006004544261057f9190610944565b610589908361097d565b905060008160065461059b9190610944565b935050505090565b60085460ff166105c55760405162461bcd60e51b81526004016102d6906108b4565b6005546004546105d59190610901565b42106105f35760405162461bcd60e51b81526004016102d690610919565b60006105fd6104fb565b90508034101561064f5760405162461bcd60e51b815260206004820181905260248201527f4e6f7420656e6f756768204554482073656e7420666f7220707572636861736560448201526064016102d6565b6001546003546002546040516323b872dd60e01b81526001600160a01b03928316600482015233602482015260448101919091529116906323b872dd90606401600060405180830381600087803b1580156106a957600080fd5b505af11580156106bd573d6000803e3d6000fd5b50505050600081346106cf9190610944565b9050801561070657604051339082156108fc029083906000818181858888f19350505050158015610704573d6000803e3d6000fd5b505b6003546001600160a01b0316ff5b6000546001600160a01b031633146107065760405162461bcd60e51b81526004016102d690610862565b6000546001600160a01b031633146107685760405162461bcd60e51b81526004016102d690610862565b6001600160a01b0381166107cd5760405162461bcd60e51b815260206004820152602660248201527f4f776e61626c653a206e6577206f776e657220697320746865207a65726f206160448201526564647265737360d01b60648201526084016102d6565b6107d6816107d9565b50565b600080546001600160a01b038381166001600160a01b0319831681178455604051919092169283917f8be0079c531659141344cd1fd0a4f28419497f9722a3daafe3b4186f6b6457e09190a35050565b6001600160a01b03811681146107d657600080fd5b60006020828403121561085057600080fd5b813561085b81610829565b9392505050565b6020808252818101527f4f776e61626c653a2063616c6c6572206973206e6f7420746865206f776e6572604082015260600190565b6000602082840312156108a957600080fd5b815161085b81610829565b6020808252601c908201527f41756374696f6e20686173206e6f742073746172746564207965742100000000604082015260600190565b634e487b7160e01b600052601160045260246000fd5b60008219821115610914576109146108eb565b500190565b602080825260119082015270105d58dd1a5bdb881a185cc8195b991959607a1b604082015260600190565b600082821015610956576109566108eb565b500390565b60008261097857634e487b7160e01b600052601260045260246000fd5b500490565b6000816000190483118215151615610997576109976108eb565b50029056fea2646970667358221220e9a91d487af1e12ac3b89a8100e5bb266838e67b5e054d187bf51f732cc8c40864736f6c634300080d0033",
  "bytecodeSha1": "555c2906aa7554b16d80ee69049db6954221a609",
  "compiler": {
    "evm_version": "istanbul",
    "optimizer": {
      "enabled": true,
      "runs": 200
    },
    "version": "0.8.13+commit.abaa5c0e"
  },
  "contractName": "DutchAuction",
  "language": "Solidity",
  "natspec": {
    "author": "Victor Marin Felip",
    "kind": "dev",
    "methods": {
      "auctionAge()": {
        "details": "Returns seconds since auction started."
      },
      "buy()": {
        "details": "Attempts to buy the NFT. If enough ETH was sent with the transaction the NFT will be transferred to the sender. Any extra ETH sent will be returned to the sender. The contract selfdestructs after the process. If not enough ETH is sent to buy it at the current price it reverts and nothing happens. Auction needs to be live to work (started and not finished)"
      },
      "constructor": {
        "details": "The auction needs to be instantiated, then the contract has to be approved at the NFT so it can transfer it to the winner, and then the auction must be started.",
        "params": {
          "_durationSeconds": "auction duration in seconds, msut be 60 seconds at least.",
          "_nft": "address of an ERC721 compatible contract.",
          "_nftId": "Id of the token to be auctioned.",
          "_reservePrice": "reserve price of the auction. Must be less than _startingPrice, can be 0.",
          "_startingPrice": "starting price of the auction."
        }
      },
      "destroyAuction()": {
        "details": "Triggers selfdestruct. Only owner can call this function."
      },
      "getPrice()": {
        "details": "returns the current price based on block.timestamp and the constructor parameters."
      },
      "owner()": {
        "details": "Returns the address of the current owner."
      },
      "renounceOwnership()": {
        "details": "Leaves the contract without owner. It will not be possible to call `onlyOwner` functions anymore. Can only be called by the current owner. NOTE: Renouncing ownership will leave the contract without an owner, thereby removing any functionality that is only available to the owner."
      },
      "startAuction()": {
        "details": "Starts the auction. The contract needs to be approved first at the NFT."
      },
      "transferOwnership(address)": {
        "details": "Transfers ownership of the contract to a new account (`newOwner`). Can only be called by the current owner."
      }
    },
    "notice": "An implementation of a Dutch-style reverse Auction. Contract needs to be NFT approved to work.",
    "version": 1
  },
  "opcodes": "PUSH1 0x80 PUSH1 0x40 MSTORE PUSH1 0x4 CALLDATASIZE LT PUSH2 0xF3 JUMPI PUSH1 0x0 CALLDATALOAD PUSH1 0xE0 SHR DUP1 PUSH4 0x98D5FDCA GT PUSH2 0x8A JUMPI DUP1 PUSH4 0xC77B1B8F GT PUSH2 0x59 JUMPI DUP1 PUSH4 0xC77B1B8F EQ PUSH2 0x24B JUMPI DUP1 PUSH4 0xD6FBF202 EQ PUSH2 0x260 JUMPI DUP1 PUSH4 0xDB2E1EED EQ PUSH2 0x276 JUMPI DUP1 PUSH4 0xF2FDE38B EQ PUSH2 0x28C JUMPI PUSH1 0x0 DUP1 REVERT JUMPDEST DUP1 PUSH4 0x98D5FDCA EQ PUSH2 0x202 JUMPI DUP1 PUSH4 0xA6F2AE3A EQ PUSH2 0x217 JUMPI DUP1 PUSH4 0xC6BC5182 EQ PUSH2 0x21F JUMPI DUP1 PUSH4 0xC7446565 EQ PUSH2 0x235 JUMPI PUSH1 0x0 DUP1 REVERT JUMPDEST DUP1 PUSH4 0x715018A6 GT PUSH2 0xC6 JUMPI DUP1 PUSH4 0x715018A6 EQ PUSH2 0x190 JUMPI DUP1 PUSH4 0x8A646433 EQ PUSH2 0x1A5 JUMPI DUP1 PUSH4 0x8CF80BD9 EQ PUSH2 0x1BA JUMPI DUP1 PUSH4 0x8DA5CB5B EQ PUSH2 0x1E4 JUMPI PUSH1 0x0 DUP1 REVERT JUMPDEST DUP1 PUSH4 0x8551A53 EQ PUSH2 0xF8 JUMPI DUP1 PUSH4 0xFB5A6B4 EQ PUSH2 0x135 JUMPI DUP1 PUSH4 0x47CCCA02 EQ PUSH2 0x159 JUMPI DUP1 PUSH4 0x6B64C769 EQ PUSH2 0x179 JUMPI JUMPDEST PUSH1 0x0 DUP1 REVERT JUMPDEST CALLVALUE DUP1 ISZERO PUSH2 0x104 JUMPI PUSH1 0x0 DUP1 REVERT JUMPDEST POP PUSH1 0x3 SLOAD PUSH2 0x118 SWAP1 PUSH1 0x1 PUSH1 0x1 PUSH1 0xA0 SHL SUB AND DUP2 JUMP JUMPDEST PUSH1 0x40 MLOAD PUSH1 0x1 PUSH1 0x1 PUSH1 0xA0 SHL SUB SWAP1 SWAP2 AND DUP2 MSTORE PUSH1 0x20 ADD JUMPDEST PUSH1 0x40 MLOAD DUP1 SWAP2 SUB SWAP1 RETURN JUMPDEST CALLVALUE DUP1 ISZERO PUSH2 0x141 JUMPI PUSH1 0x0 DUP1 REVERT JUMPDEST POP PUSH2 0x14B PUSH1 0x5 SLOAD DUP2 JUMP JUMPDEST PUSH1 0x40 MLOAD SWAP1 DUP2 MSTORE PUSH1 0x20 ADD PUSH2 0x12C JUMP JUMPDEST CALLVALUE DUP1 ISZERO PUSH2 0x165 JUMPI PUSH1 0x0 DUP1 REVERT JUMPDEST POP PUSH1 0x1 SLOAD PUSH2 0x118 SWAP1 PUSH1 0x1 PUSH1 0x1 PUSH1 0xA0 SHL SUB AND DUP2 JUMP JUMPDEST CALLVALUE DUP1 ISZERO PUSH2 0x185 JUMPI PUSH1 0x0 DUP1 REVERT JUMPDEST POP PUSH2 0x18E PUSH2 0x2AC JUMP JUMPDEST STOP JUMPDEST CALLVALUE DUP1 ISZERO PUSH2 0x19C JUMPI PUSH1 0x0 DUP1 REVERT JUMPDEST POP PUSH2 0x18E PUSH2 0x460 JUMP JUMPDEST CALLVALUE DUP1 ISZERO PUSH2 0x1B1 JUMPI PUSH1 0x0 DUP1 REVERT JUMPDEST POP PUSH2 0x14B PUSH2 0x496 JUMP JUMPDEST CALLVALUE DUP1 ISZERO PUSH2 0x1C6 JUMPI PUSH1 0x0 DUP1 REVERT JUMPDEST POP PUSH1 0x8 SLOAD PUSH2 0x1D4 SWAP1 PUSH1 0xFF AND DUP2 JUMP JUMPDEST PUSH1 0x40 MLOAD SWAP1 ISZERO ISZERO DUP2 MSTORE PUSH1 0x20 ADD PUSH2 0x12C JUMP JUMPDEST CALLVALUE DUP1 ISZERO PUSH2 0x1F0 JUMPI PUSH1 0x0 DUP1 REVERT JUMPDEST POP PUSH1 0x0 SLOAD PUSH1 0x1 PUSH1 0x1 PUSH1 0xA0 SHL SUB AND PUSH2 0x118 JUMP JUMPDEST CALLVALUE DUP1 ISZERO PUSH2 0x20E JUMPI PUSH1 0x0 DUP1 REVERT JUMPDEST POP PUSH2 0x14B PUSH2 0x4FB JUMP JUMPDEST PUSH2 0x18E PUSH2 0x5A3 JUMP JUMPDEST CALLVALUE DUP1 ISZERO PUSH2 0x22B JUMPI PUSH1 0x0 DUP1 REVERT JUMPDEST POP PUSH2 0x14B PUSH1 0x2 SLOAD DUP2 JUMP JUMPDEST CALLVALUE DUP1 ISZERO PUSH2 0x241 JUMPI PUSH1 0x0 DUP1 REVERT JUMPDEST POP PUSH2 0x14B PUSH1 0x4 SLOAD DUP2 JUMP JUMPDEST CALLVALUE DUP1 ISZERO PUSH2 0x257 JUMPI PUSH1 0x0 DUP1 REVERT JUMPDEST POP PUSH2 0x18E PUSH2 0x714 JUMP JUMPDEST CALLVALUE DUP1 ISZERO PUSH2 0x26C JUMPI PUSH1 0x0 DUP1 REVERT JUMPDEST POP PUSH2 0x14B PUSH1 0x6 SLOAD DUP2 JUMP JUMPDEST CALLVALUE DUP1 ISZERO PUSH2 0x282 JUMPI PUSH1 0x0 DUP1 REVERT JUMPDEST POP PUSH2 0x14B PUSH1 0x7 SLOAD DUP2 JUMP JUMPDEST CALLVALUE DUP1 ISZERO PUSH2 0x298 JUMPI PUSH1 0x0 DUP1 REVERT JUMPDEST POP PUSH2 0x18E PUSH2 0x2A7 CALLDATASIZE PUSH1 0x4 PUSH2 0x83E JUMP JUMPDEST PUSH2 0x73E JUMP JUMPDEST PUSH1 0x0 SLOAD PUSH1 0x1 PUSH1 0x1 PUSH1 0xA0 SHL SUB AND CALLER EQ PUSH2 0x2DF JUMPI PUSH1 0x40 MLOAD PUSH3 0x461BCD PUSH1 0xE5 SHL DUP2 MSTORE PUSH1 0x4 ADD PUSH2 0x2D6 SWAP1 PUSH2 0x862 JUMP JUMPDEST PUSH1 0x40 MLOAD DUP1 SWAP2 SUB SWAP1 REVERT JUMPDEST PUSH1 0x1 SLOAD PUSH1 0x2 SLOAD PUSH1 0x40 MLOAD PUSH4 0x20604BF PUSH1 0xE2 SHL DUP2 MSTORE PUSH1 0x1 PUSH1 0x1 PUSH1 0xA0 SHL SUB SWAP1 SWAP3 AND SWAP2 PUSH4 0x81812FC SWAP2 PUSH2 0x314 SWAP2 PUSH1 0x4 ADD SWAP1 DUP2 MSTORE PUSH1 0x20 ADD SWAP1 JUMP JUMPDEST PUSH1 0x20 PUSH1 0x40 MLOAD DUP1 DUP4 SUB DUP2 DUP7 GAS STATICCALL ISZERO DUP1 ISZERO PUSH2 0x331 JUMPI RETURNDATASIZE PUSH1 0x0 DUP1 RETURNDATACOPY RETURNDATASIZE PUSH1 0x0 REVERT JUMPDEST POP POP POP POP PUSH1 0x40 MLOAD RETURNDATASIZE PUSH1 0x1F NOT PUSH1 0x1F DUP3 ADD AND DUP3 ADD DUP1 PUSH1 0x40 MSTORE POP DUP2 ADD SWAP1 PUSH2 0x355 SWAP2 SWAP1 PUSH2 0x897 JUMP JUMPDEST PUSH1 0x1 PUSH1 0x1 PUSH1 0xA0 SHL SUB AND ADDRESS PUSH1 0x1 PUSH1 0x1 PUSH1 0xA0 SHL SUB AND EQ PUSH2 0x3EB JUMPI PUSH1 0x40 MLOAD PUSH3 0x461BCD PUSH1 0xE5 SHL DUP2 MSTORE PUSH1 0x20 PUSH1 0x4 DUP3 ADD MSTORE PUSH1 0x47 PUSH1 0x24 DUP3 ADD MSTORE PUSH32 0x41756374696F6E2063616E6E6F7420626520737461727465642E204E4654206F PUSH1 0x44 DUP3 ADD MSTORE PUSH32 0x776E657220686173206E6F7420617070726F766564207468697320636F6E7472 PUSH1 0x64 DUP3 ADD MSTORE PUSH7 0x1858DD081E595D PUSH1 0xCA SHL PUSH1 0x84 DUP3 ADD MSTORE PUSH1 0xA4 ADD PUSH2 0x2D6 JUMP JUMPDEST PUSH1 0x8 SLOAD PUSH1 0xFF AND ISZERO PUSH2 0x44D JUMPI PUSH1 0x40 MLOAD PUSH3 0x461BCD PUSH1 0xE5 SHL DUP2 MSTORE PUSH1 0x20 PUSH1 0x4 DUP3 ADD MSTORE PUSH1 0x26 PUSH1 0x24 DUP3 ADD MSTORE PUSH32 0x43616E277420737461727420616E20616C726561647920737461727465642061 PUSH1 0x44 DUP3 ADD MSTORE PUSH6 0x3AB1BA34B7B7 PUSH1 0xD1 SHL PUSH1 0x64 DUP3 ADD MSTORE PUSH1 0x84 ADD PUSH2 0x2D6 JUMP JUMPDEST TIMESTAMP PUSH1 0x4 SSTORE PUSH1 0x8 DUP1 SLOAD PUSH1 0xFF NOT AND PUSH1 0x1 OR SWAP1 SSTORE JUMP JUMPDEST PUSH1 0x0 SLOAD PUSH1 0x1 PUSH1 0x1 PUSH1 0xA0 SHL SUB AND CALLER EQ PUSH2 0x48A JUMPI PUSH1 0x40 MLOAD PUSH3 0x461BCD PUSH1 0xE5 SHL DUP2 MSTORE PUSH1 0x4 ADD PUSH2 0x2D6 SWAP1 PUSH2 0x862 JUMP JUMPDEST PUSH2 0x494 PUSH1 0x0 PUSH2 0x7D9 JUMP JUMPDEST JUMP JUMPDEST PUSH1 0x8 SLOAD PUSH1 0x0 SWAP1 PUSH1 0xFF AND PUSH2 0x4BB JUMPI PUSH1 0x40 MLOAD PUSH3 0x461BCD PUSH1 0xE5 SHL DUP2 MSTORE PUSH1 0x4 ADD PUSH2 0x2D6 SWAP1 PUSH2 0x8B4 JUMP JUMPDEST PUSH1 0x5 SLOAD PUSH1 0x4 SLOAD PUSH2 0x4CB SWAP2 SWAP1 PUSH2 0x901 JUMP JUMPDEST TIMESTAMP LT PUSH2 0x4E9 JUMPI PUSH1 0x40 MLOAD PUSH3 0x461BCD PUSH1 0xE5 SHL DUP2 MSTORE PUSH1 0x4 ADD PUSH2 0x2D6 SWAP1 PUSH2 0x919 JUMP JUMPDEST PUSH1 0x4 SLOAD PUSH2 0x4F6 SWAP1 TIMESTAMP PUSH2 0x944 JUMP JUMPDEST SWAP1 POP SWAP1 JUMP JUMPDEST PUSH1 0x8 SLOAD PUSH1 0x0 SWAP1 PUSH1 0xFF AND PUSH2 0x520 JUMPI PUSH1 0x40 MLOAD PUSH3 0x461BCD PUSH1 0xE5 SHL DUP2 MSTORE PUSH1 0x4 ADD PUSH2 0x2D6 SWAP1 PUSH2 0x8B4 JUMP JUMPDEST PUSH1 0x5 SLOAD PUSH1 0x4 SLOAD PUSH2 0x530 SWAP2 SWAP1 PUSH2 0x901 JUMP JUMPDEST TIMESTAMP LT PUSH2 0x54E JUMPI PUSH1 0x40 MLOAD PUSH3 0x461BCD PUSH1 0xE5 SHL DUP2 MSTORE PUSH1 0x4 ADD PUSH2 0x2D6 SWAP1 PUSH2 0x919 JUMP JUMPDEST PUSH1 0x0 PUSH1 0x5 SLOAD PUSH1 0x7 SLOAD PUSH1 0x6 SLOAD PUSH2 0x563 SWAP2 SWAP1 PUSH2 0x944 JUMP JUMPDEST PUSH2 0x56D SWAP2 SWAP1 PUSH2 0x95B JUMP JUMPDEST SWAP1 POP PUSH1 0x0 PUSH1 0x4 SLOAD TIMESTAMP PUSH2 0x57F SWAP2 SWAP1 PUSH2 0x944 JUMP JUMPDEST PUSH2 0x589 SWAP1 DUP4 PUSH2 0x97D JUMP JUMPDEST SWAP1 POP PUSH1 0x0 DUP2 PUSH1 0x6 SLOAD PUSH2 0x59B SWAP2 SWAP1 PUSH2 0x944 JUMP JUMPDEST SWAP4 POP POP POP POP SWAP1 JUMP JUMPDEST PUSH1 0x8 SLOAD PUSH1 0xFF AND PUSH2 0x5C5 JUMPI PUSH1 0x40 MLOAD PUSH3 0x461BCD PUSH1 0xE5 SHL DUP2 MSTORE PUSH1 0x4 ADD PUSH2 0x2D6 SWAP1 PUSH2 0x8B4 JUMP JUMPDEST PUSH1 0x5 SLOAD PUSH1 0x4 SLOAD PUSH2 0x5D5 SWAP2 SWAP1 PUSH2 0x901 JUMP JUMPDEST TIMESTAMP LT PUSH2 0x5F3 JUMPI PUSH1 0x40 MLOAD PUSH3 0x461BCD PUSH1 0xE5 SHL DUP2 MSTORE PUSH1 0x4 ADD PUSH2 0x2D6 SWAP1 PUSH2 0x919 JUMP JUMPDEST PUSH1 0x0 PUSH2 0x5FD PUSH2 0x4FB JUMP JUMPDEST SWAP1 POP DUP1 CALLVALUE LT ISZERO PUSH2 0x64F JUMPI PUSH1 0x40 MLOAD PUSH3 0x461BCD PUSH1 0xE5 SHL DUP2 MSTORE PUSH1 0x20 PUSH1 0x4 DUP3 ADD DUP2 SWAP1 MSTORE PUSH1 0x24 DUP3 ADD MSTORE PUSH32 0x4E6F7420656E6F756768204554482073656E7420666F72207075726368617365 PUSH1 0x44 DUP3 ADD MSTORE PUSH1 0x64 ADD PUSH2 0x2D6 JUMP JUMPDEST PUSH1 0x1 SLOAD PUSH1 0x3 SLOAD PUSH1 0x2 SLOAD PUSH1 0x40 MLOAD PUSH4 0x23B872DD PUSH1 0xE0 SHL DUP2 MSTORE PUSH1 0x1 PUSH1 0x1 PUSH1 0xA0 SHL SUB SWAP3 DUP4 AND PUSH1 0x4 DUP3 ADD MSTORE CALLER PUSH1 0x24 DUP3 ADD MSTORE PUSH1 0x44 DUP2 ADD SWAP2 SWAP1 SWAP2 MSTORE SWAP2 AND SWAP1 PUSH4 0x23B872DD SWAP1 PUSH1 0x64 ADD PUSH1 0x0 PUSH1 0x40 MLOAD DUP1 DUP4 SUB DUP2 PUSH1 0x0 DUP8 DUP1 EXTCODESIZE ISZERO DUP1 ISZERO PUSH2 0x6A9 JUMPI PUSH1 0x0 DUP1 REVERT JUMPDEST POP GAS CALL ISZERO DUP1 ISZERO PUSH2 0x6BD JUMPI RETURNDATASIZE PUSH1 0x0 DUP1 RETURNDATACOPY RETURNDATASIZE PUSH1 0x0 REVERT JUMPDEST POP POP POP POP PUSH1 0x0 DUP2 CALLVALUE PUSH2 0x6CF SWAP2 SWAP1 PUSH2 0x944 JUMP JUMPDEST SWAP1 POP DUP1 ISZERO PUSH2 0x706 JUMPI PUSH1 0x40 MLOAD CALLER SWAP1 DUP3 ISZERO PUSH2 0x8FC MUL SWAP1 DUP4 SWAP1 PUSH1 0x0 DUP2 DUP2 DUP2 DUP6 DUP9 DUP9 CALL SWAP4 POP POP POP POP ISZERO DUP1 ISZERO PUSH2 0x704 JUMPI RETURNDATASIZE PUSH1 0x0 DUP1 RETURNDATACOPY RETURNDATASIZE PUSH1 0x0 REVERT JUMPDEST POP JUMPDEST PUSH1 0x3 SLOAD PUSH1 0x1 PUSH1 0x1 PUSH1 0xA0 SHL SUB AND SELFDESTRUCT JUMPDEST PUSH1 0x0 SLOAD PUSH1 0x1 PUSH1 0x1 PUSH1 0xA0 SHL SUB AND CALLER EQ PUSH2 0x706 JUMPI PUSH1 0x40 MLOAD PUSH3 0x461BCD PUSH1 0xE5 SHL DUP2 MSTORE PUSH1 0x4 ADD PUSH2 0x2D6 SWAP1 PUSH2 0x862 JUMP JUMPDEST PUSH1 0x0 SLOAD PUSH1 0x1 PUSH1 0x1 PUSH1 0xA0 SHL SUB AND CALLER EQ PUSH2 0x768 JUMPI PUSH1 0x40 MLOAD PUSH3 0x461BCD PUSH1 0xE5 SHL DUP2 MSTORE PUSH1 0x4 ADD PUSH2 0x2D6 SWAP1 PUSH2 0x862 JUMP JUMPDEST PUSH1 0x1 PUSH1 0x1 PUSH1 0xA0 SHL SUB DUP2 AND PUSH2 0x7CD JUMPI PUSH1 0x40 MLOAD PUSH3 0x461BCD PUSH1 0xE5 SHL DUP2 MSTORE PUSH1 0x20 PUSH1 0x4 DUP3 ADD MSTORE PUSH1 0x26 PUSH1 0x24 DUP3 ADD MSTORE PUSH32 0x4F776E61626C653A206E6577206F776E657220697320746865207A65726F2061 PUSH1 0x44 DUP3 ADD MSTORE PUSH6 0x646472657373 PUSH1 0xD0 SHL PUSH1 0x64 DUP3 ADD MSTORE PUSH1 0x84 ADD PUSH2 0x2D6 JUMP JUMPDEST PUSH2 0x7D6 DUP2 PUSH2 0x7D9 JUMP JUMPDEST POP JUMP JUMPDEST PUSH1 0x0 DUP1 SLOAD PUSH1 0x1 PUSH1 0x1 PUSH1 0xA0 SHL SUB DUP4 DUP2 AND PUSH1 0x1 PUSH1 0x1 PUSH1 0xA0 SHL SUB NOT DUP4 AND DUP2 OR DUP5 SSTORE PUSH1 0x40 MLOAD SWAP2 SWAP1 SWAP3 AND SWAP3 DUP4 SWAP2 PUSH32 0x8BE0079C531659141344CD1FD0A4F28419497F9722A3DAAFE3B4186F6B6457E0 SWAP2 SWAP1 LOG3 POP POP JUMP JUMPDEST PUSH1 0x1 PUSH1 0x1 PUSH1 0xA0 SHL SUB DUP2 AND DUP2 EQ PUSH2 0x7D6 JUMPI PUSH1 0x0 DUP1 REVERT JUMPDEST PUSH1 0x0 PUSH1 0x20 DUP3 DUP5 SUB SLT ISZERO PUSH2 0x850 JUMPI PUSH1 0x0 DUP1 REVERT JUMPDEST DUP2 CALLDATALOAD PUSH2 0x85B DUP2 PUSH2 0x829 JUMP JUMPDEST SWAP4 SWAP3 POP POP POP JUMP JUMPDEST PUSH1 0x20 DUP1 DUP3 MSTORE DUP2 DUP2 ADD MSTORE PUSH32 0x4F776E61626C653A2063616C6C6572206973206E6F7420746865206F776E6572 PUSH1 0x40 DUP3 ADD MSTORE PUSH1 0x60 ADD SWAP1 JUMP JUMPDEST PUSH1 0x0 PUSH1 0x20 DUP3 DUP5 SUB SLT ISZERO PUSH2 0x8A9 JUMPI PUSH1 0x0 DUP1 REVERT JUMPDEST DUP2 MLOAD PUSH2 0x85B DUP2 PUSH2 0x829 JUMP JUMPDEST PUSH1 0x20 DUP1 DUP3 MSTORE PUSH1 0x1C SWAP1 DUP3 ADD MSTORE PUSH32 0x41756374696F6E20686173206E6F742073746172746564207965742100000000 PUSH1 0x40 DUP3 ADD MSTORE PUSH1 0x60 ADD SWAP1 JUMP JUMPDEST PUSH4 0x4E487B71 PUSH1 0xE0 SHL PUSH1 0x0 MSTORE PUSH1 0x11 PUSH1 0x4 MSTORE PUSH1 0x24 PUSH1 0x0 REVERT JUMPDEST PUSH1 0x0 DUP3 NOT DUP3 GT ISZERO PUSH2 0x914 JUMPI PUSH2 0x914 PUSH2 0x8EB JUMP JUMPDEST POP ADD SWAP1 JUMP JUMPDEST PUSH1 0x20 DUP1 DUP3 MSTORE PUSH1 0x11 SWAP1 DUP3 ADD MSTORE PUSH17 0x105D58DD1A5BDB881A185CC8195B991959 PUSH1 0x7A SHL PUSH1 0x40 DUP3 ADD MSTORE PUSH1 0x60 ADD SWAP1 JUMP JUMPDEST PUSH1 0x0 DUP3 DUP3 LT ISZERO PUSH2 0x956 JUMPI PUSH2 0x956 PUSH2 0x8EB JUMP JUMPDEST POP SUB SWAP1 JUMP JUMPDEST PUSH1 0x0 DUP3 PUSH2 0x978 JUMPI PUSH4 0x4E487B71 PUSH1 0xE0 SHL PUSH1 0x0 MSTORE PUSH1 0x12 PUSH1 0x4 MSTORE PUSH1 0x24 PUSH1 0x0 REVERT JUMPDEST POP DIV SWAP1 JUMP JUMPDEST PUSH1 0x0 DUP2 PUSH1 0x0 NOT DIV DUP4 GT DUP3 ISZERO ISZERO AND ISZERO PUSH2 0x997 JUMPI PUSH2 0x997 PUSH2 0x8EB JUMP JUMPDEST POP MUL SWAP1 JUMP INVALID LOG2 PUSH5 0x6970667358 0x22 SLT KECCAK256 0xE9 0xA9 SAR BASEFEE PUSH27 0xF1E12AC3B89A8100E5BB266838E67B5E054D187BF51F732CC8C408 PUSH5 0x736F6C6343 STOP ADDMOD 0xD STOP CALLER ",
  "sha1": "b80219ff4bcbc1174173fe4a6887e376aef7cdfd",
  "source": "// SPDX-License-Identifier: MIT\npragma solidity ^0.8.0;\n\nimport \"@openzeppelin/contracts/utils/math/SafeMath.sol\";\nimport \"@openzeppelin/contracts/token/ERC721/IERC721.sol\";\nimport \"@openzeppelin/contracts/access/Ownable.sol\";\n\n/**\n * @author Victor Marin Felip\n *\n * @notice An implementation of a Dutch-style reverse Auction. Contract needs to be NFT approved to work.\n *\n */\ncontract DutchAuction is Ownable {\n\n    using SafeMath for uint;\n\n    IERC721 public nft;\n    uint public nftId;\n\n    address payable public seller;\n    uint public startAt;\n    uint public duration;\n    uint public startingPrice;\n    uint public reservePrice;\n    bool public auctionGreenlit = false;\n\n    // We only use this once but this way our intentions are super clear\n    modifier contractIsApproved {\n        require(address(this) == nft.getApproved(nftId), \"Auction cannot be started. NFT owner has not approved this contract yet\");\n        _;\n    }\n\n    modifier auctionIsLive {\n        require(auctionGreenlit, \"Auction has not started yet!\");\n        require(block.timestamp < startAt + duration, \"Auction has ended\");\n        _;\n    }\n\n    /**\n     * @dev The auction needs to be instantiated, then the contract has to be approved at the NFT so it can transfer it to the winner, and then the auction must be started.\n     * @param _startingPrice starting price of the auction.\n     * @param _reservePrice reserve price of the auction. Must be less than _startingPrice, can be 0.\n     * @param _durationSeconds auction duration in seconds, msut be 60 seconds at least.\n     * @param _nft address of an ERC721 compatible contract.\n     * @param _nftId Id of the token to be auctioned.\n     */\n    constructor(\n        uint _startingPrice,\n        uint _reservePrice,\n        uint _durationSeconds,\n        address _nft,\n        uint _nftId\n    ) public {\n        // We make sure that there is enough time to buy, duration of at least one block\n        // usually is between 12/14 seconds, but we're being extra sure with a minute\n        // This will prevent many weird shenanigans\n        require(_durationSeconds >= 60, \"Auction duration must be at least a minute\");\n        require(_startingPrice > 0, \"Starting price must be positive\");\n        require(_reservePrice < _startingPrice, \"Reserve price must be less than starting price\");\n\n        seller = payable(msg.sender);\n        startingPrice = _startingPrice;\n        reservePrice = _reservePrice;\n        duration = _durationSeconds;\n\n        nft = IERC721(_nft);\n        nftId = _nftId;\n    }\n\n    /**\n     * @dev Starts the auction. The contract needs to be approved first at the NFT.\n     */\n    function startAuction() public onlyOwner contractIsApproved {\n        require(auctionGreenlit == false, \"Can't start an already started auction\");\n        startAt = block.timestamp;\n        auctionGreenlit = true;\n    }\n\n    /**\n     * @dev returns the current price based on block.timestamp and the constructor parameters.\n     */\n    function getPrice() public view auctionIsLive returns (uint) {\n        // rate = (delta_Y) / (delta_X) -slope of a line- -always negative in our case-\n        // we'll use the negative of delta_Y to get a positive rate so we don't stop using uint\n        uint rate_pos = (startingPrice - reservePrice) / duration;\n        // price = rate * elapsed_time + initial_price, but we have a positive rate\n        // price - initial_price = rate * elapsed_time ->\n        // initial_price - price = -1 * rate * elapsed_time, and we have basically -1 * rate so ->\n        uint price_change_pos = rate_pos * (block.timestamp - startAt);\n        uint price = startingPrice - price_change_pos;\n        return price;\n    }\n\n    /**\n     * @dev Attempts to buy the NFT. If enough ETH was sent with the transaction the NFT will be transferred to the sender.\n     * Any extra ETH sent will be returned to the sender. The contract selfdestructs after the process. If not enough ETH\n     * is sent to buy it at the current price it reverts and nothing happens. Auction needs to be live to work (started and not finished)\n     */\n    function buy() external payable auctionIsLive {\n        uint price = getPrice();\n        require(msg.value >= price, \"Not enough ETH sent for purchase\");\n        // Sending the NFT to the buyer\n        nft.transferFrom(seller, msg.sender, nftId);\n        uint slack = msg.value - price;\n        // Send back the extra eth that may have been sent to the buy function\n        if (slack > 0) {\n            payable(msg.sender).transfer(slack);\n        }\n        // And we render this unusable\n        selfdestruct(seller);\n    }\n\n    /**\n     * @dev Triggers selfdestruct. Only owner can call this function.\n     */\n    function destroyAuction() public onlyOwner {\n        selfdestruct(seller);\n    }\n\n    /**\n     * @dev Returns seconds since auction started.\n     */\n    function auctionAge() public view auctionIsLive returns(uint) {\n        return block.timestamp - startAt;\n    }\n}",
  "sourcePath": "contracts/Auction.sol",
  "type": "contract"
}