{
  "abi": [
    {
      "inputs": [
        {
          "internalType": "uint256",
          "name": "_startingPrice",
          "type": "uint256"
        },
        {
          "internalType": "uint256",
          "name": "_reservePrice",
          "type": "uint256"
        },
        {
          "internalType": "uint256",
          "name": "_durationSeconds",
          "type": "uint256"
        },
        {
          "internalType": "address",
          "name": "_nft",
          "type": "address"
        },
        {
          "internalType": "uint256",
          "name": "_nftId",
          "type": "uint256"
        }
      ],
      "stateMutability": "nonpayable",
      "type": "constructor"
    },
    {
      "anonymous": false,
      "inputs": [
        {
          "indexed": true,
          "internalType": "address",
          "name": "previousOwner",
          "type": "address"
        },
        {
          "indexed": true,
          "internalType": "address",
          "name": "newOwner",
          "type": "address"
        }
      ],
      "name": "OwnershipTransferred",
      "type": "event"
    },
    {
      "anonymous": false,
      "inputs": [
        {
          "indexed": false,
          "internalType": "address",
          "name": "account",
          "type": "address"
        }
      ],
      "name": "Paused",
      "type": "event"
    },
    {
      "anonymous": false,
      "inputs": [
        {
          "indexed": false,
          "internalType": "address",
          "name": "account",
          "type": "address"
        }
      ],
      "name": "Unpaused",
      "type": "event"
    },
    {
      "inputs": [],
      "name": "auctionAge",
      "outputs": [
        {
          "internalType": "uint256",
          "name": "",
          "type": "uint256"
        }
      ],
      "stateMutability": "view",
      "type": "function"
    },
    {
      "inputs": [],
      "name": "auctionGreenlit",
      "outputs": [
        {
          "internalType": "bool",
          "name": "",
          "type": "bool"
        }
      ],
      "stateMutability": "view",
      "type": "function"
    },
    {
      "inputs": [],
      "name": "buy",
      "outputs": [],
      "stateMutability": "payable",
      "type": "function"
    },
    {
      "inputs": [],
      "name": "duration",
      "outputs": [
        {
          "internalType": "uint256",
          "name": "",
          "type": "uint256"
        }
      ],
      "stateMutability": "view",
      "type": "function"
    },
    {
      "inputs": [],
      "name": "getPrice",
      "outputs": [
        {
          "internalType": "uint256",
          "name": "",
          "type": "uint256"
        }
      ],
      "stateMutability": "view",
      "type": "function"
    },
    {
      "inputs": [],
      "name": "nft",
      "outputs": [
        {
          "internalType": "contract IERC721",
          "name": "",
          "type": "address"
        }
      ],
      "stateMutability": "view",
      "type": "function"
    },
    {
      "inputs": [],
      "name": "nftId",
      "outputs": [
        {
          "internalType": "uint256",
          "name": "",
          "type": "uint256"
        }
      ],
      "stateMutability": "view",
      "type": "function"
    },
    {
      "inputs": [],
      "name": "owner",
      "outputs": [
        {
          "internalType": "address",
          "name": "",
          "type": "address"
        }
      ],
      "stateMutability": "view",
      "type": "function"
    },
    {
      "inputs": [],
      "name": "paused",
      "outputs": [
        {
          "internalType": "bool",
          "name": "",
          "type": "bool"
        }
      ],
      "stateMutability": "view",
      "type": "function"
    },
    {
      "inputs": [
        {
          "internalType": "address payable",
          "name": "target",
          "type": "address"
        }
      ],
      "name": "recoverEth",
      "outputs": [],
      "stateMutability": "payable",
      "type": "function"
    },
    {
      "inputs": [],
      "name": "renounceOwnership",
      "outputs": [],
      "stateMutability": "nonpayable",
      "type": "function"
    },
    {
      "inputs": [],
      "name": "reservePrice",
      "outputs": [
        {
          "internalType": "uint256",
          "name": "",
          "type": "uint256"
        }
      ],
      "stateMutability": "view",
      "type": "function"
    },
    {
      "inputs": [],
      "name": "seller",
      "outputs": [
        {
          "internalType": "address payable",
          "name": "",
          "type": "address"
        }
      ],
      "stateMutability": "view",
      "type": "function"
    },
    {
      "inputs": [],
      "name": "startAt",
      "outputs": [
        {
          "internalType": "uint256",
          "name": "",
          "type": "uint256"
        }
      ],
      "stateMutability": "view",
      "type": "function"
    },
    {
      "inputs": [],
      "name": "startAuction",
      "outputs": [],
      "stateMutability": "nonpayable",
      "type": "function"
    },
    {
      "inputs": [],
      "name": "startingPrice",
      "outputs": [
        {
          "internalType": "uint256",
          "name": "",
          "type": "uint256"
        }
      ],
      "stateMutability": "view",
      "type": "function"
    },
    {
      "inputs": [
        {
          "internalType": "address",
          "name": "newOwner",
          "type": "address"
        }
      ],
      "name": "transferOwnership",
      "outputs": [],
      "stateMutability": "nonpayable",
      "type": "function"
    }
  ],
  "bytecode": "60806040526008805460ff1916905534801561001a57600080fd5b50604051610e38380380610e3883398101604081905261003991610203565b610042336101b3565b6000805460ff60a01b19169055603c8310156100b85760405162461bcd60e51b815260206004820152602a60248201527f41756374696f6e206475726174696f6e206d757374206265206174206c656173604482015269742061206d696e75746560b01b60648201526084015b60405180910390fd5b600085116101085760405162461bcd60e51b815260206004820152601f60248201527f5374617274696e67207072696365206d75737420626520706f7369746976650060448201526064016100af565b84841061016e5760405162461bcd60e51b815260206004820152602e60248201527f52657365727665207072696365206d757374206265206c657373207468616e2060448201526d7374617274696e6720707269636560901b60648201526084016100af565b60038054336001600160a01b031991821617909155600695909555600793909355600591909155600180549093166001600160a01b039091161790915560025561025e565b600080546001600160a01b038381166001600160a01b0319831681178455604051919092169283917f8be0079c531659141344cd1fd0a4f28419497f9722a3daafe3b4186f6b6457e09190a35050565b600080600080600060a0868803121561021b57600080fd5b855160208701516040880151606089015192975090955093506001600160a01b038116811461024957600080fd5b80925050608086015190509295509295909350565b610bcb8061026d6000396000f3fe6080604052600436106100fe5760003560e01c80638cf80bd911610095578063c6bc518211610064578063c6bc518214610258578063c74465651461026e578063d6fbf20214610284578063db2e1eed1461029a578063f2fde38b146102b057600080fd5b80638cf80bd9146102035780638da5cb5b1461021d57806398d5fdca1461023b578063a6f2ae3a1461025057600080fd5b80636b64c769116100d15780636b64c769146101af578063715018a6146101c65780637504db3e146101db5780638a646433146101ee57600080fd5b806308551a53146101035780630fb5a6b41461014057806347ccca02146101645780635c975abb14610184575b600080fd5b34801561010f57600080fd5b50600354610123906001600160a01b031681565b6040516001600160a01b0390911681526020015b60405180910390f35b34801561014c57600080fd5b5061015660055481565b604051908152602001610137565b34801561017057600080fd5b50600154610123906001600160a01b031681565b34801561019057600080fd5b50600054600160a01b900460ff165b6040519015158152602001610137565b3480156101bb57600080fd5b506101c46102d0565b005b3480156101d257600080fd5b506101c46104ae565b6101c46101e9366004610a0d565b6104e4565b3480156101fa57600080fd5b50610156610597565b34801561020f57600080fd5b5060085461019f9060ff1681565b34801561022957600080fd5b506000546001600160a01b0316610123565b34801561024757600080fd5b50610156610624565b6101c46106f6565b34801561026457600080fd5b5061015660025481565b34801561027a57600080fd5b5061015660045481565b34801561029057600080fd5b5061015660065481565b3480156102a657600080fd5b5061015660075481565b3480156102bc57600080fd5b506101c46102cb366004610a0d565b61088b565b600054600160a01b900460ff16156103035760405162461bcd60e51b81526004016102fa90610a31565b60405180910390fd5b6000546001600160a01b0316331461032d5760405162461bcd60e51b81526004016102fa90610a5b565b60015460025460405163020604bf60e21b81526001600160a01b039092169163081812fc916103629160040190815260200190565b602060405180830381865afa15801561037f573d6000803e3d6000fd5b505050506040513d601f19601f820116820180604052508101906103a39190610a90565b6001600160a01b0316306001600160a01b0316146104395760405162461bcd60e51b815260206004820152604760248201527f41756374696f6e2063616e6e6f7420626520737461727465642e204e4654206f60448201527f776e657220686173206e6f7420617070726f766564207468697320636f6e74726064820152661858dd081e595d60ca1b608482015260a4016102fa565b60085460ff161561049b5760405162461bcd60e51b815260206004820152602660248201527f43616e277420737461727420616e20616c7265616479207374617274656420616044820152653ab1ba34b7b760d11b60648201526084016102fa565b426004556008805460ff19166001179055565b6000546001600160a01b031633146104d85760405162461bcd60e51b81526004016102fa90610a5b565b6104e26000610926565b565b6000546001600160a01b0316331461050e5760405162461bcd60e51b81526004016102fa90610a5b565b600054600160a01b900460ff1661055e5760405162461bcd60e51b815260206004820152601460248201527314185d5cd8589b194e881b9bdd081c185d5cd95960621b60448201526064016102fa565b6040516001600160a01b038216904780156108fc02916000818181858888f19350505050158015610593573d6000803e3d6000fd5b5050565b60008054600160a01b900460ff16156105c25760405162461bcd60e51b81526004016102fa90610a31565b60085460ff166105e45760405162461bcd60e51b81526004016102fa90610aad565b6005546004546105f49190610afa565b42106106125760405162461bcd60e51b81526004016102fa90610b12565b60045461061f9042610b3d565b905090565b60008054600160a01b900460ff161561064f5760405162461bcd60e51b81526004016102fa90610a31565b60085460ff166106715760405162461bcd60e51b81526004016102fa90610aad565b6005546004546106819190610afa565b421061069f5760405162461bcd60e51b81526004016102fa90610b12565b6000600554600454426106b29190610b3d565b6007546006546106c29190610b3d565b6106cc9190610b54565b6005546006546106dc9190610b54565b6106e69190610b3d565b6106f09190610b73565b91505090565b600054600160a01b900460ff16156107205760405162461bcd60e51b81526004016102fa90610a31565b60085460ff166107425760405162461bcd60e51b81526004016102fa90610aad565b6005546004546107529190610afa565b42106107705760405162461bcd60e51b81526004016102fa90610b12565b600061077a610624565b9050803410156107cc5760405162461bcd60e51b815260206004820181905260248201527f4e6f7420656e6f756768204554482073656e7420666f7220707572636861736560448201526064016102fa565b6001546003546002546040516323b872dd60e01b81526001600160a01b03928316600482015233602482015260448101919091529116906323b872dd90606401600060405180830381600087803b15801561082657600080fd5b505af115801561083a573d6000803e3d6000fd5b505050506000813461084c9190610b3d565b9050801561088357604051339082156108fc029083906000818181858888f19350505050158015610881573d6000803e3d6000fd5b505b610593610976565b6000546001600160a01b031633146108b55760405162461bcd60e51b81526004016102fa90610a5b565b6001600160a01b03811661091a5760405162461bcd60e51b815260206004820152602660248201527f4f776e61626c653a206e6577206f776e657220697320746865207a65726f206160448201526564647265737360d01b60648201526084016102fa565b61092381610926565b50565b600080546001600160a01b038381166001600160a01b0319831681178455604051919092169283917f8be0079c531659141344cd1fd0a4f28419497f9722a3daafe3b4186f6b6457e09190a35050565b600054600160a01b900460ff16156109a05760405162461bcd60e51b81526004016102fa90610a31565b6000805460ff60a01b1916600160a01b1790557f62e78cea01bee320cd4e420270b5ea74000d11b0c9f74754ebdbfc544b05a2586109db3390565b6040516001600160a01b03909116815260200160405180910390a1565b6001600160a01b038116811461092357600080fd5b600060208284031215610a1f57600080fd5b8135610a2a816109f8565b9392505050565b60208082526010908201526f14185d5cd8589b194e881c185d5cd95960821b604082015260600190565b6020808252818101527f4f776e61626c653a2063616c6c6572206973206e6f7420746865206f776e6572604082015260600190565b600060208284031215610aa257600080fd5b8151610a2a816109f8565b6020808252601c908201527f41756374696f6e20686173206e6f742073746172746564207965742100000000604082015260600190565b634e487b7160e01b600052601160045260246000fd5b60008219821115610b0d57610b0d610ae4565b500190565b602080825260119082015270105d58dd1a5bdb881a185cc8195b991959607a1b604082015260600190565b600082821015610b4f57610b4f610ae4565b500390565b6000816000190483118215151615610b6e57610b6e610ae4565b500290565b600082610b9057634e487b7160e01b600052601260045260246000fd5b50049056fea2646970667358221220802bc60a4916b6e7af3225cc7a6056f4c4bc1c07e304f55bc4f854f84da59fa364736f6c634300080d0033",
  "bytecodeSha1": "4fd8353583992fea15d2bf50d9457efa110116f3",
  "compiler": {
    "evm_version": "istanbul",
    "optimizer": {
      "enabled": true,
      "runs": 200
    },
    "version": "0.8.13+commit.abaa5c0e"
  },
  "contractName": "DutchAuction",
  "language": "Solidity",
  "natspec": {
    "author": "Victor Marin Felip",
    "kind": "dev",
    "methods": {
      "auctionAge()": {
        "details": "Returns seconds since auction started."
      },
      "buy()": {
        "details": "Attempts to buy the NFT. If enough ETH was sent with the transaction the NFT will be transferred to the sender. Any extra ETH sent will be returned to the sender. The contract selfdestructs after the process. If not enough ETH is sent to buy it at the current price it reverts and nothing happens. Auction needs to be live to work (started and not finished)"
      },
      "constructor": {
        "details": "The auction needs to be instantiated, then the contract has to be approved at the NFT so it can transfer it to the winner, and then the auction must be started.",
        "params": {
          "_durationSeconds": "auction duration in seconds, msut be 60 seconds at least.",
          "_nft": "address of an ERC721 compatible contract.",
          "_nftId": "Id of the token to be auctioned.",
          "_reservePrice": "reserve price of the auction. Must be less than _startingPrice, can be 0.",
          "_startingPrice": "starting price of the auction."
        }
      },
      "getPrice()": {
        "details": "returns the current price based on block.timestamp and the constructor parameters."
      },
      "owner()": {
        "details": "Returns the address of the current owner."
      },
      "paused()": {
        "details": "Returns true if the contract is paused, and false otherwise."
      },
      "recoverEth(address)": {
        "details": "Sends contract balance to target address. The contract needs to be paused."
      },
      "renounceOwnership()": {
        "details": "Leaves the contract without owner. It will not be possible to call `onlyOwner` functions anymore. Can only be called by the current owner. NOTE: Renouncing ownership will leave the contract without an owner, thereby removing any functionality that is only available to the owner."
      },
      "startAuction()": {
        "details": "Starts the auction. The contract needs to be approved first at the NFT."
      },
      "transferOwnership(address)": {
        "details": "Transfers ownership of the contract to a new account (`newOwner`). Can only be called by the current owner."
      }
    },
    "notice": "An implementation of a Dutch-style reverse Auction. Contract needs to be NFT approved to work.",
    "version": 1
  },
  "opcodes": "PUSH1 0x80 PUSH1 0x40 MSTORE PUSH1 0x4 CALLDATASIZE LT PUSH2 0xFE JUMPI PUSH1 0x0 CALLDATALOAD PUSH1 0xE0 SHR DUP1 PUSH4 0x8CF80BD9 GT PUSH2 0x95 JUMPI DUP1 PUSH4 0xC6BC5182 GT PUSH2 0x64 JUMPI DUP1 PUSH4 0xC6BC5182 EQ PUSH2 0x258 JUMPI DUP1 PUSH4 0xC7446565 EQ PUSH2 0x26E JUMPI DUP1 PUSH4 0xD6FBF202 EQ PUSH2 0x284 JUMPI DUP1 PUSH4 0xDB2E1EED EQ PUSH2 0x29A JUMPI DUP1 PUSH4 0xF2FDE38B EQ PUSH2 0x2B0 JUMPI PUSH1 0x0 DUP1 REVERT JUMPDEST DUP1 PUSH4 0x8CF80BD9 EQ PUSH2 0x203 JUMPI DUP1 PUSH4 0x8DA5CB5B EQ PUSH2 0x21D JUMPI DUP1 PUSH4 0x98D5FDCA EQ PUSH2 0x23B JUMPI DUP1 PUSH4 0xA6F2AE3A EQ PUSH2 0x250 JUMPI PUSH1 0x0 DUP1 REVERT JUMPDEST DUP1 PUSH4 0x6B64C769 GT PUSH2 0xD1 JUMPI DUP1 PUSH4 0x6B64C769 EQ PUSH2 0x1AF JUMPI DUP1 PUSH4 0x715018A6 EQ PUSH2 0x1C6 JUMPI DUP1 PUSH4 0x7504DB3E EQ PUSH2 0x1DB JUMPI DUP1 PUSH4 0x8A646433 EQ PUSH2 0x1EE JUMPI PUSH1 0x0 DUP1 REVERT JUMPDEST DUP1 PUSH4 0x8551A53 EQ PUSH2 0x103 JUMPI DUP1 PUSH4 0xFB5A6B4 EQ PUSH2 0x140 JUMPI DUP1 PUSH4 0x47CCCA02 EQ PUSH2 0x164 JUMPI DUP1 PUSH4 0x5C975ABB EQ PUSH2 0x184 JUMPI JUMPDEST PUSH1 0x0 DUP1 REVERT JUMPDEST CALLVALUE DUP1 ISZERO PUSH2 0x10F JUMPI PUSH1 0x0 DUP1 REVERT JUMPDEST POP PUSH1 0x3 SLOAD PUSH2 0x123 SWAP1 PUSH1 0x1 PUSH1 0x1 PUSH1 0xA0 SHL SUB AND DUP2 JUMP JUMPDEST PUSH1 0x40 MLOAD PUSH1 0x1 PUSH1 0x1 PUSH1 0xA0 SHL SUB SWAP1 SWAP2 AND DUP2 MSTORE PUSH1 0x20 ADD JUMPDEST PUSH1 0x40 MLOAD DUP1 SWAP2 SUB SWAP1 RETURN JUMPDEST CALLVALUE DUP1 ISZERO PUSH2 0x14C JUMPI PUSH1 0x0 DUP1 REVERT JUMPDEST POP PUSH2 0x156 PUSH1 0x5 SLOAD DUP2 JUMP JUMPDEST PUSH1 0x40 MLOAD SWAP1 DUP2 MSTORE PUSH1 0x20 ADD PUSH2 0x137 JUMP JUMPDEST CALLVALUE DUP1 ISZERO PUSH2 0x170 JUMPI PUSH1 0x0 DUP1 REVERT JUMPDEST POP PUSH1 0x1 SLOAD PUSH2 0x123 SWAP1 PUSH1 0x1 PUSH1 0x1 PUSH1 0xA0 SHL SUB AND DUP2 JUMP JUMPDEST CALLVALUE DUP1 ISZERO PUSH2 0x190 JUMPI PUSH1 0x0 DUP1 REVERT JUMPDEST POP PUSH1 0x0 SLOAD PUSH1 0x1 PUSH1 0xA0 SHL SWAP1 DIV PUSH1 0xFF AND JUMPDEST PUSH1 0x40 MLOAD SWAP1 ISZERO ISZERO DUP2 MSTORE PUSH1 0x20 ADD PUSH2 0x137 JUMP JUMPDEST CALLVALUE DUP1 ISZERO PUSH2 0x1BB JUMPI PUSH1 0x0 DUP1 REVERT JUMPDEST POP PUSH2 0x1C4 PUSH2 0x2D0 JUMP JUMPDEST STOP JUMPDEST CALLVALUE DUP1 ISZERO PUSH2 0x1D2 JUMPI PUSH1 0x0 DUP1 REVERT JUMPDEST POP PUSH2 0x1C4 PUSH2 0x4AE JUMP JUMPDEST PUSH2 0x1C4 PUSH2 0x1E9 CALLDATASIZE PUSH1 0x4 PUSH2 0xA0D JUMP JUMPDEST PUSH2 0x4E4 JUMP JUMPDEST CALLVALUE DUP1 ISZERO PUSH2 0x1FA JUMPI PUSH1 0x0 DUP1 REVERT JUMPDEST POP PUSH2 0x156 PUSH2 0x597 JUMP JUMPDEST CALLVALUE DUP1 ISZERO PUSH2 0x20F JUMPI PUSH1 0x0 DUP1 REVERT JUMPDEST POP PUSH1 0x8 SLOAD PUSH2 0x19F SWAP1 PUSH1 0xFF AND DUP2 JUMP JUMPDEST CALLVALUE DUP1 ISZERO PUSH2 0x229 JUMPI PUSH1 0x0 DUP1 REVERT JUMPDEST POP PUSH1 0x0 SLOAD PUSH1 0x1 PUSH1 0x1 PUSH1 0xA0 SHL SUB AND PUSH2 0x123 JUMP JUMPDEST CALLVALUE DUP1 ISZERO PUSH2 0x247 JUMPI PUSH1 0x0 DUP1 REVERT JUMPDEST POP PUSH2 0x156 PUSH2 0x624 JUMP JUMPDEST PUSH2 0x1C4 PUSH2 0x6F6 JUMP JUMPDEST CALLVALUE DUP1 ISZERO PUSH2 0x264 JUMPI PUSH1 0x0 DUP1 REVERT JUMPDEST POP PUSH2 0x156 PUSH1 0x2 SLOAD DUP2 JUMP JUMPDEST CALLVALUE DUP1 ISZERO PUSH2 0x27A JUMPI PUSH1 0x0 DUP1 REVERT JUMPDEST POP PUSH2 0x156 PUSH1 0x4 SLOAD DUP2 JUMP JUMPDEST CALLVALUE DUP1 ISZERO PUSH2 0x290 JUMPI PUSH1 0x0 DUP1 REVERT JUMPDEST POP PUSH2 0x156 PUSH1 0x6 SLOAD DUP2 JUMP JUMPDEST CALLVALUE DUP1 ISZERO PUSH2 0x2A6 JUMPI PUSH1 0x0 DUP1 REVERT JUMPDEST POP PUSH2 0x156 PUSH1 0x7 SLOAD DUP2 JUMP JUMPDEST CALLVALUE DUP1 ISZERO PUSH2 0x2BC JUMPI PUSH1 0x0 DUP1 REVERT JUMPDEST POP PUSH2 0x1C4 PUSH2 0x2CB CALLDATASIZE PUSH1 0x4 PUSH2 0xA0D JUMP JUMPDEST PUSH2 0x88B JUMP JUMPDEST PUSH1 0x0 SLOAD PUSH1 0x1 PUSH1 0xA0 SHL SWAP1 DIV PUSH1 0xFF AND ISZERO PUSH2 0x303 JUMPI PUSH1 0x40 MLOAD PUSH3 0x461BCD PUSH1 0xE5 SHL DUP2 MSTORE PUSH1 0x4 ADD PUSH2 0x2FA SWAP1 PUSH2 0xA31 JUMP JUMPDEST PUSH1 0x40 MLOAD DUP1 SWAP2 SUB SWAP1 REVERT JUMPDEST PUSH1 0x0 SLOAD PUSH1 0x1 PUSH1 0x1 PUSH1 0xA0 SHL SUB AND CALLER EQ PUSH2 0x32D JUMPI PUSH1 0x40 MLOAD PUSH3 0x461BCD PUSH1 0xE5 SHL DUP2 MSTORE PUSH1 0x4 ADD PUSH2 0x2FA SWAP1 PUSH2 0xA5B JUMP JUMPDEST PUSH1 0x1 SLOAD PUSH1 0x2 SLOAD PUSH1 0x40 MLOAD PUSH4 0x20604BF PUSH1 0xE2 SHL DUP2 MSTORE PUSH1 0x1 PUSH1 0x1 PUSH1 0xA0 SHL SUB SWAP1 SWAP3 AND SWAP2 PUSH4 0x81812FC SWAP2 PUSH2 0x362 SWAP2 PUSH1 0x4 ADD SWAP1 DUP2 MSTORE PUSH1 0x20 ADD SWAP1 JUMP JUMPDEST PUSH1 0x20 PUSH1 0x40 MLOAD DUP1 DUP4 SUB DUP2 DUP7 GAS STATICCALL ISZERO DUP1 ISZERO PUSH2 0x37F JUMPI RETURNDATASIZE PUSH1 0x0 DUP1 RETURNDATACOPY RETURNDATASIZE PUSH1 0x0 REVERT JUMPDEST POP POP POP POP PUSH1 0x40 MLOAD RETURNDATASIZE PUSH1 0x1F NOT PUSH1 0x1F DUP3 ADD AND DUP3 ADD DUP1 PUSH1 0x40 MSTORE POP DUP2 ADD SWAP1 PUSH2 0x3A3 SWAP2 SWAP1 PUSH2 0xA90 JUMP JUMPDEST PUSH1 0x1 PUSH1 0x1 PUSH1 0xA0 SHL SUB AND ADDRESS PUSH1 0x1 PUSH1 0x1 PUSH1 0xA0 SHL SUB AND EQ PUSH2 0x439 JUMPI PUSH1 0x40 MLOAD PUSH3 0x461BCD PUSH1 0xE5 SHL DUP2 MSTORE PUSH1 0x20 PUSH1 0x4 DUP3 ADD MSTORE PUSH1 0x47 PUSH1 0x24 DUP3 ADD MSTORE PUSH32 0x41756374696F6E2063616E6E6F7420626520737461727465642E204E4654206F PUSH1 0x44 DUP3 ADD MSTORE PUSH32 0x776E657220686173206E6F7420617070726F766564207468697320636F6E7472 PUSH1 0x64 DUP3 ADD MSTORE PUSH7 0x1858DD081E595D PUSH1 0xCA SHL PUSH1 0x84 DUP3 ADD MSTORE PUSH1 0xA4 ADD PUSH2 0x2FA JUMP JUMPDEST PUSH1 0x8 SLOAD PUSH1 0xFF AND ISZERO PUSH2 0x49B JUMPI PUSH1 0x40 MLOAD PUSH3 0x461BCD PUSH1 0xE5 SHL DUP2 MSTORE PUSH1 0x20 PUSH1 0x4 DUP3 ADD MSTORE PUSH1 0x26 PUSH1 0x24 DUP3 ADD MSTORE PUSH32 0x43616E277420737461727420616E20616C726561647920737461727465642061 PUSH1 0x44 DUP3 ADD MSTORE PUSH6 0x3AB1BA34B7B7 PUSH1 0xD1 SHL PUSH1 0x64 DUP3 ADD MSTORE PUSH1 0x84 ADD PUSH2 0x2FA JUMP JUMPDEST TIMESTAMP PUSH1 0x4 SSTORE PUSH1 0x8 DUP1 SLOAD PUSH1 0xFF NOT AND PUSH1 0x1 OR SWAP1 SSTORE JUMP JUMPDEST PUSH1 0x0 SLOAD PUSH1 0x1 PUSH1 0x1 PUSH1 0xA0 SHL SUB AND CALLER EQ PUSH2 0x4D8 JUMPI PUSH1 0x40 MLOAD PUSH3 0x461BCD PUSH1 0xE5 SHL DUP2 MSTORE PUSH1 0x4 ADD PUSH2 0x2FA SWAP1 PUSH2 0xA5B JUMP JUMPDEST PUSH2 0x4E2 PUSH1 0x0 PUSH2 0x926 JUMP JUMPDEST JUMP JUMPDEST PUSH1 0x0 SLOAD PUSH1 0x1 PUSH1 0x1 PUSH1 0xA0 SHL SUB AND CALLER EQ PUSH2 0x50E JUMPI PUSH1 0x40 MLOAD PUSH3 0x461BCD PUSH1 0xE5 SHL DUP2 MSTORE PUSH1 0x4 ADD PUSH2 0x2FA SWAP1 PUSH2 0xA5B JUMP JUMPDEST PUSH1 0x0 SLOAD PUSH1 0x1 PUSH1 0xA0 SHL SWAP1 DIV PUSH1 0xFF AND PUSH2 0x55E JUMPI PUSH1 0x40 MLOAD PUSH3 0x461BCD PUSH1 0xE5 SHL DUP2 MSTORE PUSH1 0x20 PUSH1 0x4 DUP3 ADD MSTORE PUSH1 0x14 PUSH1 0x24 DUP3 ADD MSTORE PUSH20 0x14185D5CD8589B194E881B9BDD081C185D5CD959 PUSH1 0x62 SHL PUSH1 0x44 DUP3 ADD MSTORE PUSH1 0x64 ADD PUSH2 0x2FA JUMP JUMPDEST PUSH1 0x40 MLOAD PUSH1 0x1 PUSH1 0x1 PUSH1 0xA0 SHL SUB DUP3 AND SWAP1 SELFBALANCE DUP1 ISZERO PUSH2 0x8FC MUL SWAP2 PUSH1 0x0 DUP2 DUP2 DUP2 DUP6 DUP9 DUP9 CALL SWAP4 POP POP POP POP ISZERO DUP1 ISZERO PUSH2 0x593 JUMPI RETURNDATASIZE PUSH1 0x0 DUP1 RETURNDATACOPY RETURNDATASIZE PUSH1 0x0 REVERT JUMPDEST POP POP JUMP JUMPDEST PUSH1 0x0 DUP1 SLOAD PUSH1 0x1 PUSH1 0xA0 SHL SWAP1 DIV PUSH1 0xFF AND ISZERO PUSH2 0x5C2 JUMPI PUSH1 0x40 MLOAD PUSH3 0x461BCD PUSH1 0xE5 SHL DUP2 MSTORE PUSH1 0x4 ADD PUSH2 0x2FA SWAP1 PUSH2 0xA31 JUMP JUMPDEST PUSH1 0x8 SLOAD PUSH1 0xFF AND PUSH2 0x5E4 JUMPI PUSH1 0x40 MLOAD PUSH3 0x461BCD PUSH1 0xE5 SHL DUP2 MSTORE PUSH1 0x4 ADD PUSH2 0x2FA SWAP1 PUSH2 0xAAD JUMP JUMPDEST PUSH1 0x5 SLOAD PUSH1 0x4 SLOAD PUSH2 0x5F4 SWAP2 SWAP1 PUSH2 0xAFA JUMP JUMPDEST TIMESTAMP LT PUSH2 0x612 JUMPI PUSH1 0x40 MLOAD PUSH3 0x461BCD PUSH1 0xE5 SHL DUP2 MSTORE PUSH1 0x4 ADD PUSH2 0x2FA SWAP1 PUSH2 0xB12 JUMP JUMPDEST PUSH1 0x4 SLOAD PUSH2 0x61F SWAP1 TIMESTAMP PUSH2 0xB3D JUMP JUMPDEST SWAP1 POP SWAP1 JUMP JUMPDEST PUSH1 0x0 DUP1 SLOAD PUSH1 0x1 PUSH1 0xA0 SHL SWAP1 DIV PUSH1 0xFF AND ISZERO PUSH2 0x64F JUMPI PUSH1 0x40 MLOAD PUSH3 0x461BCD PUSH1 0xE5 SHL DUP2 MSTORE PUSH1 0x4 ADD PUSH2 0x2FA SWAP1 PUSH2 0xA31 JUMP JUMPDEST PUSH1 0x8 SLOAD PUSH1 0xFF AND PUSH2 0x671 JUMPI PUSH1 0x40 MLOAD PUSH3 0x461BCD PUSH1 0xE5 SHL DUP2 MSTORE PUSH1 0x4 ADD PUSH2 0x2FA SWAP1 PUSH2 0xAAD JUMP JUMPDEST PUSH1 0x5 SLOAD PUSH1 0x4 SLOAD PUSH2 0x681 SWAP2 SWAP1 PUSH2 0xAFA JUMP JUMPDEST TIMESTAMP LT PUSH2 0x69F JUMPI PUSH1 0x40 MLOAD PUSH3 0x461BCD PUSH1 0xE5 SHL DUP2 MSTORE PUSH1 0x4 ADD PUSH2 0x2FA SWAP1 PUSH2 0xB12 JUMP JUMPDEST PUSH1 0x0 PUSH1 0x5 SLOAD PUSH1 0x4 SLOAD TIMESTAMP PUSH2 0x6B2 SWAP2 SWAP1 PUSH2 0xB3D JUMP JUMPDEST PUSH1 0x7 SLOAD PUSH1 0x6 SLOAD PUSH2 0x6C2 SWAP2 SWAP1 PUSH2 0xB3D JUMP JUMPDEST PUSH2 0x6CC SWAP2 SWAP1 PUSH2 0xB54 JUMP JUMPDEST PUSH1 0x5 SLOAD PUSH1 0x6 SLOAD PUSH2 0x6DC SWAP2 SWAP1 PUSH2 0xB54 JUMP JUMPDEST PUSH2 0x6E6 SWAP2 SWAP1 PUSH2 0xB3D JUMP JUMPDEST PUSH2 0x6F0 SWAP2 SWAP1 PUSH2 0xB73 JUMP JUMPDEST SWAP2 POP POP SWAP1 JUMP JUMPDEST PUSH1 0x0 SLOAD PUSH1 0x1 PUSH1 0xA0 SHL SWAP1 DIV PUSH1 0xFF AND ISZERO PUSH2 0x720 JUMPI PUSH1 0x40 MLOAD PUSH3 0x461BCD PUSH1 0xE5 SHL DUP2 MSTORE PUSH1 0x4 ADD PUSH2 0x2FA SWAP1 PUSH2 0xA31 JUMP JUMPDEST PUSH1 0x8 SLOAD PUSH1 0xFF AND PUSH2 0x742 JUMPI PUSH1 0x40 MLOAD PUSH3 0x461BCD PUSH1 0xE5 SHL DUP2 MSTORE PUSH1 0x4 ADD PUSH2 0x2FA SWAP1 PUSH2 0xAAD JUMP JUMPDEST PUSH1 0x5 SLOAD PUSH1 0x4 SLOAD PUSH2 0x752 SWAP2 SWAP1 PUSH2 0xAFA JUMP JUMPDEST TIMESTAMP LT PUSH2 0x770 JUMPI PUSH1 0x40 MLOAD PUSH3 0x461BCD PUSH1 0xE5 SHL DUP2 MSTORE PUSH1 0x4 ADD PUSH2 0x2FA SWAP1 PUSH2 0xB12 JUMP JUMPDEST PUSH1 0x0 PUSH2 0x77A PUSH2 0x624 JUMP JUMPDEST SWAP1 POP DUP1 CALLVALUE LT ISZERO PUSH2 0x7CC JUMPI PUSH1 0x40 MLOAD PUSH3 0x461BCD PUSH1 0xE5 SHL DUP2 MSTORE PUSH1 0x20 PUSH1 0x4 DUP3 ADD DUP2 SWAP1 MSTORE PUSH1 0x24 DUP3 ADD MSTORE PUSH32 0x4E6F7420656E6F756768204554482073656E7420666F72207075726368617365 PUSH1 0x44 DUP3 ADD MSTORE PUSH1 0x64 ADD PUSH2 0x2FA JUMP JUMPDEST PUSH1 0x1 SLOAD PUSH1 0x3 SLOAD PUSH1 0x2 SLOAD PUSH1 0x40 MLOAD PUSH4 0x23B872DD PUSH1 0xE0 SHL DUP2 MSTORE PUSH1 0x1 PUSH1 0x1 PUSH1 0xA0 SHL SUB SWAP3 DUP4 AND PUSH1 0x4 DUP3 ADD MSTORE CALLER PUSH1 0x24 DUP3 ADD MSTORE PUSH1 0x44 DUP2 ADD SWAP2 SWAP1 SWAP2 MSTORE SWAP2 AND SWAP1 PUSH4 0x23B872DD SWAP1 PUSH1 0x64 ADD PUSH1 0x0 PUSH1 0x40 MLOAD DUP1 DUP4 SUB DUP2 PUSH1 0x0 DUP8 DUP1 EXTCODESIZE ISZERO DUP1 ISZERO PUSH2 0x826 JUMPI PUSH1 0x0 DUP1 REVERT JUMPDEST POP GAS CALL ISZERO DUP1 ISZERO PUSH2 0x83A JUMPI RETURNDATASIZE PUSH1 0x0 DUP1 RETURNDATACOPY RETURNDATASIZE PUSH1 0x0 REVERT JUMPDEST POP POP POP POP PUSH1 0x0 DUP2 CALLVALUE PUSH2 0x84C SWAP2 SWAP1 PUSH2 0xB3D JUMP JUMPDEST SWAP1 POP DUP1 ISZERO PUSH2 0x883 JUMPI PUSH1 0x40 MLOAD CALLER SWAP1 DUP3 ISZERO PUSH2 0x8FC MUL SWAP1 DUP4 SWAP1 PUSH1 0x0 DUP2 DUP2 DUP2 DUP6 DUP9 DUP9 CALL SWAP4 POP POP POP POP ISZERO DUP1 ISZERO PUSH2 0x881 JUMPI RETURNDATASIZE PUSH1 0x0 DUP1 RETURNDATACOPY RETURNDATASIZE PUSH1 0x0 REVERT JUMPDEST POP JUMPDEST PUSH2 0x593 PUSH2 0x976 JUMP JUMPDEST PUSH1 0x0 SLOAD PUSH1 0x1 PUSH1 0x1 PUSH1 0xA0 SHL SUB AND CALLER EQ PUSH2 0x8B5 JUMPI PUSH1 0x40 MLOAD PUSH3 0x461BCD PUSH1 0xE5 SHL DUP2 MSTORE PUSH1 0x4 ADD PUSH2 0x2FA SWAP1 PUSH2 0xA5B JUMP JUMPDEST PUSH1 0x1 PUSH1 0x1 PUSH1 0xA0 SHL SUB DUP2 AND PUSH2 0x91A JUMPI PUSH1 0x40 MLOAD PUSH3 0x461BCD PUSH1 0xE5 SHL DUP2 MSTORE PUSH1 0x20 PUSH1 0x4 DUP3 ADD MSTORE PUSH1 0x26 PUSH1 0x24 DUP3 ADD MSTORE PUSH32 0x4F776E61626C653A206E6577206F776E657220697320746865207A65726F2061 PUSH1 0x44 DUP3 ADD MSTORE PUSH6 0x646472657373 PUSH1 0xD0 SHL PUSH1 0x64 DUP3 ADD MSTORE PUSH1 0x84 ADD PUSH2 0x2FA JUMP JUMPDEST PUSH2 0x923 DUP2 PUSH2 0x926 JUMP JUMPDEST POP JUMP JUMPDEST PUSH1 0x0 DUP1 SLOAD PUSH1 0x1 PUSH1 0x1 PUSH1 0xA0 SHL SUB DUP4 DUP2 AND PUSH1 0x1 PUSH1 0x1 PUSH1 0xA0 SHL SUB NOT DUP4 AND DUP2 OR DUP5 SSTORE PUSH1 0x40 MLOAD SWAP2 SWAP1 SWAP3 AND SWAP3 DUP4 SWAP2 PUSH32 0x8BE0079C531659141344CD1FD0A4F28419497F9722A3DAAFE3B4186F6B6457E0 SWAP2 SWAP1 LOG3 POP POP JUMP JUMPDEST PUSH1 0x0 SLOAD PUSH1 0x1 PUSH1 0xA0 SHL SWAP1 DIV PUSH1 0xFF AND ISZERO PUSH2 0x9A0 JUMPI PUSH1 0x40 MLOAD PUSH3 0x461BCD PUSH1 0xE5 SHL DUP2 MSTORE PUSH1 0x4 ADD PUSH2 0x2FA SWAP1 PUSH2 0xA31 JUMP JUMPDEST PUSH1 0x0 DUP1 SLOAD PUSH1 0xFF PUSH1 0xA0 SHL NOT AND PUSH1 0x1 PUSH1 0xA0 SHL OR SWAP1 SSTORE PUSH32 0x62E78CEA01BEE320CD4E420270B5EA74000D11B0C9F74754EBDBFC544B05A258 PUSH2 0x9DB CALLER SWAP1 JUMP JUMPDEST PUSH1 0x40 MLOAD PUSH1 0x1 PUSH1 0x1 PUSH1 0xA0 SHL SUB SWAP1 SWAP2 AND DUP2 MSTORE PUSH1 0x20 ADD PUSH1 0x40 MLOAD DUP1 SWAP2 SUB SWAP1 LOG1 JUMP JUMPDEST PUSH1 0x1 PUSH1 0x1 PUSH1 0xA0 SHL SUB DUP2 AND DUP2 EQ PUSH2 0x923 JUMPI PUSH1 0x0 DUP1 REVERT JUMPDEST PUSH1 0x0 PUSH1 0x20 DUP3 DUP5 SUB SLT ISZERO PUSH2 0xA1F JUMPI PUSH1 0x0 DUP1 REVERT JUMPDEST DUP2 CALLDATALOAD PUSH2 0xA2A DUP2 PUSH2 0x9F8 JUMP JUMPDEST SWAP4 SWAP3 POP POP POP JUMP JUMPDEST PUSH1 0x20 DUP1 DUP3 MSTORE PUSH1 0x10 SWAP1 DUP3 ADD MSTORE PUSH16 0x14185D5CD8589B194E881C185D5CD959 PUSH1 0x82 SHL PUSH1 0x40 DUP3 ADD MSTORE PUSH1 0x60 ADD SWAP1 JUMP JUMPDEST PUSH1 0x20 DUP1 DUP3 MSTORE DUP2 DUP2 ADD MSTORE PUSH32 0x4F776E61626C653A2063616C6C6572206973206E6F7420746865206F776E6572 PUSH1 0x40 DUP3 ADD MSTORE PUSH1 0x60 ADD SWAP1 JUMP JUMPDEST PUSH1 0x0 PUSH1 0x20 DUP3 DUP5 SUB SLT ISZERO PUSH2 0xAA2 JUMPI PUSH1 0x0 DUP1 REVERT JUMPDEST DUP2 MLOAD PUSH2 0xA2A DUP2 PUSH2 0x9F8 JUMP JUMPDEST PUSH1 0x20 DUP1 DUP3 MSTORE PUSH1 0x1C SWAP1 DUP3 ADD MSTORE PUSH32 0x41756374696F6E20686173206E6F742073746172746564207965742100000000 PUSH1 0x40 DUP3 ADD MSTORE PUSH1 0x60 ADD SWAP1 JUMP JUMPDEST PUSH4 0x4E487B71 PUSH1 0xE0 SHL PUSH1 0x0 MSTORE PUSH1 0x11 PUSH1 0x4 MSTORE PUSH1 0x24 PUSH1 0x0 REVERT JUMPDEST PUSH1 0x0 DUP3 NOT DUP3 GT ISZERO PUSH2 0xB0D JUMPI PUSH2 0xB0D PUSH2 0xAE4 JUMP JUMPDEST POP ADD SWAP1 JUMP JUMPDEST PUSH1 0x20 DUP1 DUP3 MSTORE PUSH1 0x11 SWAP1 DUP3 ADD MSTORE PUSH17 0x105D58DD1A5BDB881A185CC8195B991959 PUSH1 0x7A SHL PUSH1 0x40 DUP3 ADD MSTORE PUSH1 0x60 ADD SWAP1 JUMP JUMPDEST PUSH1 0x0 DUP3 DUP3 LT ISZERO PUSH2 0xB4F JUMPI PUSH2 0xB4F PUSH2 0xAE4 JUMP JUMPDEST POP SUB SWAP1 JUMP JUMPDEST PUSH1 0x0 DUP2 PUSH1 0x0 NOT DIV DUP4 GT DUP3 ISZERO ISZERO AND ISZERO PUSH2 0xB6E JUMPI PUSH2 0xB6E PUSH2 0xAE4 JUMP JUMPDEST POP MUL SWAP1 JUMP JUMPDEST PUSH1 0x0 DUP3 PUSH2 0xB90 JUMPI PUSH4 0x4E487B71 PUSH1 0xE0 SHL PUSH1 0x0 MSTORE PUSH1 0x12 PUSH1 0x4 MSTORE PUSH1 0x24 PUSH1 0x0 REVERT JUMPDEST POP DIV SWAP1 JUMP INVALID LOG2 PUSH5 0x6970667358 0x22 SLT KECCAK256 DUP1 0x2B 0xC6 EXP 0x49 AND 0xB6 0xE7 0xAF ORIGIN 0x25 0xCC PUSH27 0x6056F4C4BC1C07E304F55BC4F854F84DA59FA364736F6C63430008 0xD STOP CALLER ",
  "sha1": "94adf69b985d5689918f15b5e3520dec94bc2ab3",
  "source": "// SPDX-License-Identifier: MIT\npragma solidity ^0.8.0;\n\nimport \"@openzeppelin/contracts/utils/math/SafeMath.sol\";\nimport \"@openzeppelin/contracts/token/ERC721/IERC721.sol\";\nimport \"@openzeppelin/contracts/access/Ownable.sol\";\nimport \"@openzeppelin/contracts/security/Pausable.sol\";\n\n/**\n * @author Victor Marin Felip\n *\n * @notice An implementation of a Dutch-style reverse Auction. Contract needs to be NFT approved to work.\n *\n */\ncontract DutchAuction is Ownable, Pausable {\n\n    using SafeMath for uint;\n\n    IERC721 public nft;\n    uint public nftId;\n\n    address payable public seller;\n    uint public startAt;\n    uint public duration;\n    uint public startingPrice;\n    uint public reservePrice;\n    bool public auctionGreenlit = false;\n\n    // We only use this once but this way our intentions are super clear\n    modifier contractIsApproved {\n        require(address(this) == nft.getApproved(nftId), \"Auction cannot be started. NFT owner has not approved this contract yet\");\n        _;\n    }\n\n    modifier auctionIsLive {\n        require(auctionGreenlit, \"Auction has not started yet!\");\n        require(block.timestamp < startAt + duration, \"Auction has ended\");\n        _;\n    }\n\n    /**\n     * @dev The auction needs to be instantiated, then the contract has to be approved at the NFT so it can transfer it to the winner, and then the auction must be started.\n     * @param _startingPrice starting price of the auction.\n     * @param _reservePrice reserve price of the auction. Must be less than _startingPrice, can be 0.\n     * @param _durationSeconds auction duration in seconds, msut be 60 seconds at least.\n     * @param _nft address of an ERC721 compatible contract.\n     * @param _nftId Id of the token to be auctioned.\n     */\n    constructor(\n        uint _startingPrice,\n        uint _reservePrice,\n        uint _durationSeconds,\n        address _nft,\n        uint _nftId\n    ) public {\n        // We make sure that there is enough time to buy, duration of at least one block\n        // usually is between 12/14 seconds, but we're being extra sure with a minute\n        // This will prevent many weird shenanigans\n        require(_durationSeconds >= 60, \"Auction duration must be at least a minute\");\n        require(_startingPrice > 0, \"Starting price must be positive\");\n        require(_reservePrice < _startingPrice, \"Reserve price must be less than starting price\");\n\n        seller = payable(msg.sender);\n        startingPrice = _startingPrice;\n        reservePrice = _reservePrice;\n        duration = _durationSeconds;\n\n        nft = IERC721(_nft);\n        nftId = _nftId;\n    }\n\n    /**\n     * @dev Starts the auction. The contract needs to be approved first at the NFT.\n     */\n    function startAuction() public whenNotPaused onlyOwner contractIsApproved {\n        require(auctionGreenlit == false, \"Can't start an already started auction\");\n        startAt = block.timestamp;\n        auctionGreenlit = true;\n    }\n\n    /**\n     * @dev returns the current price based on block.timestamp and the constructor parameters.\n     */\n    function getPrice() public view whenNotPaused auctionIsLive returns (uint) {\n        // New version:\n        // S = starting price\n        // R = reserve price\n        // D = duration\n        // st = start time\n        // N = current time\n        // P = current price\n        //\n        // So:\n        //\n        // rate = (R - S) / D\n        //\n        // P = rate * (N - st) + S\n        //  = S + ( (R - S) * (N - st) ) / D\n        //  = ((S * D) + (R - S) * (N - st)) / D\n        //\n        // And this way we can put the division at the end.\n        // We also want to keep using uints. The only negative calculation of above's expression is (R - S)\n        // If we reverse it to avoid a negative number we can get the same result by:\n        //\n        // ((S * D) - (S - R) * (N - st)) / D\n        //          ^\n        // Where each term and operation should yield a positive number for all valid auction values.\n        uint price = ((startingPrice * duration) - (startingPrice - reservePrice) * (block.timestamp - startAt)) / duration;\n        return price;\n    }\n\n    /**\n     * @dev Attempts to buy the NFT. If enough ETH was sent with the transaction the NFT will be transferred to the sender.\n     * Any extra ETH sent will be returned to the sender. The contract selfdestructs after the process. If not enough ETH\n     * is sent to buy it at the current price it reverts and nothing happens. Auction needs to be live to work (started and not finished)\n     */\n    function buy() external payable whenNotPaused auctionIsLive {\n        uint price = getPrice();\n        require(msg.value >= price, \"Not enough ETH sent for purchase\");\n        // Sending the NFT to the buyer\n        nft.transferFrom(seller, msg.sender, nftId);\n        uint slack = msg.value - price;\n        // Send back the extra eth that may have been sent to the buy function\n        if (slack > 0) {\n            payable(msg.sender).transfer(slack);\n        }\n        // And we pause the contract using Paused\n        _pause();\n    }\n\n    /**\n     * @dev Returns seconds since auction started.\n     */\n    function auctionAge() public view whenNotPaused auctionIsLive returns(uint) {\n        return block.timestamp - startAt;\n    }\n\n    /**\n     * @dev Sends contract balance to target address. The contract needs to be paused.\n     */\n    function recoverEth(address payable target) external payable onlyOwner whenPaused {\n        target.transfer(address(this).balance);\n    }\n}",
  "sourcePath": "contracts/Auction.sol",
  "type": "contract"
}